{
  "contractName": "Checklist",
  "abi": [
    {
      "inputs": [
        {
          "internalType": "address payable",
          "name": "payer_",
          "type": "address"
        },
        {
          "internalType": "string",
          "name": "_name",
          "type": "string"
        }
      ],
      "stateMutability": "nonpayable",
      "type": "constructor"
    },
    {
      "inputs": [],
      "name": "name",
      "outputs": [
        {
          "internalType": "string",
          "name": "",
          "type": "string"
        }
      ],
      "stateMutability": "view",
      "type": "function",
      "constant": true
    },
    {
      "inputs": [
        {
          "internalType": "string",
          "name": "description_",
          "type": "string"
        },
        {
          "internalType": "uint256",
          "name": "number",
          "type": "uint256"
        },
        {
          "internalType": "uint256",
          "name": "amount",
          "type": "uint256"
        }
      ],
      "name": "addTask",
      "outputs": [
        {
          "internalType": "bool",
          "name": "",
          "type": "bool"
        }
      ],
      "stateMutability": "nonpayable",
      "type": "function"
    },
    {
      "inputs": [
        {
          "internalType": "uint256",
          "name": "number",
          "type": "uint256"
        },
        {
          "internalType": "string",
          "name": "_description",
          "type": "string"
        },
        {
          "internalType": "uint256",
          "name": "_amount",
          "type": "uint256"
        }
      ],
      "name": "changeTask",
      "outputs": [
        {
          "internalType": "bool",
          "name": "",
          "type": "bool"
        }
      ],
      "stateMutability": "nonpayable",
      "type": "function"
    },
    {
      "inputs": [
        {
          "internalType": "uint256",
          "name": "number",
          "type": "uint256"
        },
        {
          "internalType": "uint256[]",
          "name": "taskNumbers_",
          "type": "uint256[]"
        }
      ],
      "name": "removeTask",
      "outputs": [
        {
          "internalType": "bool",
          "name": "",
          "type": "bool"
        }
      ],
      "stateMutability": "nonpayable",
      "type": "function"
    },
    {
      "inputs": [
        {
          "internalType": "uint256",
          "name": "number",
          "type": "uint256"
        }
      ],
      "name": "getTask",
      "outputs": [
        {
          "internalType": "string",
          "name": "",
          "type": "string"
        },
        {
          "internalType": "uint256",
          "name": "",
          "type": "uint256"
        },
        {
          "internalType": "bool",
          "name": "",
          "type": "bool"
        },
        {
          "internalType": "bool",
          "name": "",
          "type": "bool"
        },
        {
          "internalType": "bool",
          "name": "",
          "type": "bool"
        }
      ],
      "stateMutability": "view",
      "type": "function",
      "constant": true
    },
    {
      "inputs": [],
      "name": "lockChecklist",
      "outputs": [
        {
          "internalType": "bool",
          "name": "",
          "type": "bool"
        }
      ],
      "stateMutability": "nonpayable",
      "type": "function"
    },
    {
      "inputs": [],
      "name": "escrowPayer",
      "outputs": [
        {
          "internalType": "bool",
          "name": "",
          "type": "bool"
        }
      ],
      "stateMutability": "nonpayable",
      "type": "function"
    },
    {
      "inputs": [],
      "name": "unlockChecklist",
      "outputs": [
        {
          "internalType": "bool",
          "name": "",
          "type": "bool"
        }
      ],
      "stateMutability": "nonpayable",
      "type": "function"
    },
    {
      "inputs": [
        {
          "internalType": "uint256",
          "name": "number",
          "type": "uint256"
        }
      ],
      "name": "contractorCheckOff",
      "outputs": [],
      "stateMutability": "nonpayable",
      "type": "function"
    },
    {
      "inputs": [
        {
          "internalType": "uint256",
          "name": "number",
          "type": "uint256"
        }
      ],
      "name": "payerCheckOff",
      "outputs": [],
      "stateMutability": "nonpayable",
      "type": "function"
    },
    {
      "inputs": [],
      "name": "getName",
      "outputs": [
        {
          "internalType": "string",
          "name": "",
          "type": "string"
        }
      ],
      "stateMutability": "view",
      "type": "function",
      "constant": true
    },
    {
      "inputs": [],
      "name": "getFunds",
      "outputs": [
        {
          "internalType": "uint256",
          "name": "",
          "type": "uint256"
        }
      ],
      "stateMutability": "view",
      "type": "function",
      "constant": true
    },
    {
      "inputs": [],
      "name": "getCost",
      "outputs": [
        {
          "internalType": "uint256",
          "name": "",
          "type": "uint256"
        }
      ],
      "stateMutability": "view",
      "type": "function",
      "constant": true
    },
    {
      "inputs": [],
      "name": "getPayer",
      "outputs": [
        {
          "internalType": "address payable",
          "name": "",
          "type": "address"
        }
      ],
      "stateMutability": "view",
      "type": "function",
      "constant": true
    },
    {
      "inputs": [],
      "name": "getContractor",
      "outputs": [
        {
          "internalType": "address payable",
          "name": "",
          "type": "address"
        }
      ],
      "stateMutability": "view",
      "type": "function",
      "constant": true
    },
    {
      "inputs": [],
      "name": "getLockStatus",
      "outputs": [
        {
          "internalType": "bool",
          "name": "",
          "type": "bool"
        }
      ],
      "stateMutability": "view",
      "type": "function",
      "constant": true
    },
    {
      "inputs": [],
      "name": "getContractorUnlock",
      "outputs": [
        {
          "internalType": "bool",
          "name": "",
          "type": "bool"
        }
      ],
      "stateMutability": "view",
      "type": "function",
      "constant": true
    },
    {
      "inputs": [],
      "name": "getPayerUnlock",
      "outputs": [
        {
          "internalType": "bool",
          "name": "",
          "type": "bool"
        }
      ],
      "stateMutability": "view",
      "type": "function",
      "constant": true
    },
    {
      "inputs": [],
      "name": "getTaskNumbers",
      "outputs": [
        {
          "internalType": "uint256[]",
          "name": "",
          "type": "uint256[]"
        }
      ],
      "stateMutability": "view",
      "type": "function",
      "constant": true
    }
  ],
  "bytecode": "0x60806040526001600460156101000a81548160ff0219169083151502179055506001600460166101000a81548160ff0219169083151502179055503480156200004757600080fd5b506040516200242b3803806200242b83398181016040528101906200006d919062000257565b33600460006101000a81548173ffffffffffffffffffffffffffffffffffffffff021916908373ffffffffffffffffffffffffffffffffffffffff16021790555081600360006101000a81548173ffffffffffffffffffffffffffffffffffffffff021916908373ffffffffffffffffffffffffffffffffffffffff16021790555080600090805190602001906200010792919062000118565b50600060018190555050506200039e565b828054600181600116156101000203166002900490600052602060002090601f0160209004810192826200015057600085556200019c565b82601f106200016b57805160ff19168380011785556200019c565b828001600101855582156200019c579182015b828111156200019b5782518255916020019190600101906200017e565b5b509050620001ab9190620001af565b5090565b5b80821115620001ca576000816000905550600101620001b0565b5090565b6000620001e5620001df84620002e5565b620002b1565b905082815260208101848484011115620001fe57600080fd5b6200020b8482856200034c565b509392505050565b600081519050620002248162000384565b92915050565b600082601f8301126200023c57600080fd5b81516200024e848260208601620001ce565b91505092915050565b600080604083850312156200026b57600080fd5b60006200027b8582860162000213565b925050602083015167ffffffffffffffff8111156200029957600080fd5b620002a7858286016200022a565b9150509250929050565b6000604051905081810181811067ffffffffffffffff82111715620002db57620002da62000382565b5b8060405250919050565b600067ffffffffffffffff82111562000303576200030262000382565b5b601f19601f8301169050602081019050919050565b600062000325826200032c565b9050919050565b600073ffffffffffffffffffffffffffffffffffffffff82169050919050565b60005b838110156200036c5780820151818401526020810190506200034f565b838111156200037c576000848401525b50505050565bfe5b6200038f8162000318565b81146200039b57600080fd5b50565b61207d80620003ae6000396000f3fe608060405234801561001057600080fd5b50600436106101215760003560e01c80639ae8ad45116100ad578063d07fc30311610071578063d07fc30314610314578063d60b547c14610332578063da6dadc31461034e578063ea9143451461036c578063eef9d99d1461038a57610121565b80639ae8ad451461026c578063b600dcdc1461028a578063b6cb405b146102ba578063b76e4da2146102d8578063bd3e19d4146102f657610121565b80632f95593d116100f45780632f95593d146101c657806330aa81c6146101e45780634d9b3735146102025780635d81df1a14610220578063772316491461023c57610121565b806306fdde0314610126578063075a175e1461014457806317d7de7c146101745780631d65e77e14610192575b600080fd5b61012e6103a8565b60405161013b9190611d6d565b60405180910390f35b61015e600480360381019061015991906117df565b610446565b60405161016b9190611d52565b60405180910390f35b61017c610549565b6040516101899190611d6d565b60405180910390f35b6101ac60048036038101906101a7919061175e565b6105eb565b6040516101bd959493929190611d8f565b60405180910390f35b6101ce61073b565b6040516101db9190611d52565b60405180910390f35b6101ec6108df565b6040516101f99190611d15565b60405180910390f35b61020a610909565b6040516102179190611f29565b60405180910390f35b61023a6004803603810190610235919061175e565b610913565b005b610256600480360381019061025191906116f2565b610a38565b6040516102639190611d52565b60405180910390f35b610274610c41565b6040516102819190611d52565b60405180910390f35b6102a4600480360381019061029f9190611787565b610c58565b6040516102b19190611d52565b60405180910390f35b6102c2610d4a565b6040516102cf9190611d15565b60405180910390f35b6102e0610d74565b6040516102ed9190611d52565b60405180910390f35b6102fe610e8d565b60405161030b9190611f29565b60405180910390f35b61031c610e97565b6040516103299190611d52565b60405180910390f35b61034c6004803603810190610347919061175e565b61103b565b005b610356611371565b6040516103639190611d52565b60405180910390f35b610374611388565b6040516103819190611d52565b60405180910390f35b61039261139f565b60405161039f9190611d30565b60405180910390f35b60008054600181600116156101000203166002900480601f01602080910402602001604051908101604052809291908181526020018280546001816001161561010002031660029004801561043e5780601f106104135761010080835404028352916020019161043e565b820191906000526020600020905b81548152906001019060200180831161042157829003601f168201915b505050505081565b6000801515600460149054906101000a900460ff1615151461049d576040517f08c379a000000000000000000000000000000000000000000000000000000000815260040161049490611e49565b60405180910390fd5b600084849050141580156104b15750600085115b80156104bd5750600082115b6104fc576040517f08c379a00000000000000000000000000000000000000000000000000000000081526004016104f390611de9565b60405180910390fd5b838360066000888152602001908152602001600020600101919061052192919061143d565b5081600660008781526020019081526020016000206002018190555060019050949350505050565b606060008054600181600116156101000203166002900480601f0160208091040260200160405190810160405280929190818152602001828054600181600116156101000203166002900480156105e15780601f106105b6576101008083540402835291602001916105e1565b820191906000526020600020905b8154815290600101906020018083116105c457829003601f168201915b5050505050905090565b60606000806000806006600087815260200190815260200160002060010160066000888152602001908152602001600020600201546006600089815260200190815260200160002060030160009054906101000a900460ff16600660008a815260200190815260200160002060030160019054906101000a900460ff16600660008b815260200190815260200160002060030160029054906101000a900460ff16848054600181600116156101000203166002900480601f0160208091040260200160405190810160405280929190818152602001828054600181600116156101000203166002900480156107215780601f106106f657610100808354040283529160200191610721565b820191906000526020600020905b81548152906001019060200180831161070457829003601f168201915b505050505094509450945094509450945091939590929450565b6000600360009054906101000a900473ffffffffffffffffffffffffffffffffffffffff1673ffffffffffffffffffffffffffffffffffffffff163373ffffffffffffffffffffffffffffffffffffffff1614806107e65750600460009054906101000a900473ffffffffffffffffffffffffffffffffffffffff1673ffffffffffffffffffffffffffffffffffffffff163373ffffffffffffffffffffffffffffffffffffffff16145b6107ef57600080fd5b600360009054906101000a900473ffffffffffffffffffffffffffffffffffffffff1673ffffffffffffffffffffffffffffffffffffffff163373ffffffffffffffffffffffffffffffffffffffff161415610865576000600460166101000a81548160ff021916908315150217905550610881565b6000600460156101000a81548160ff0219169083151502179055505b60001515600460169054906101000a900460ff1615151480156108b7575060001515600460159054906101000a900460ff161515145b156108d8576001600460146101000a81548160ff0219169083151502179055505b6001905090565b6000600360009054906101000a900473ffffffffffffffffffffffffffffffffffffffff16905090565b6000600154905090565b600460009054906101000a900473ffffffffffffffffffffffffffffffffffffffff1673ffffffffffffffffffffffffffffffffffffffff163373ffffffffffffffffffffffffffffffffffffffff16146109a3576040517f08c379a000000000000000000000000000000000000000000000000000000000815260040161099a90611ea9565b60405180910390fd5b6006600082815260200190815260200160002060000160009054906101000a900460ff16610a06576040517f08c379a00000000000000000000000000000000000000000000000000000000081526004016109fd90611e89565b60405180910390fd5b60016006600083815260200190815260200160002060030160006101000a81548160ff02191690831515021790555050565b6000801515600460149054906101000a900460ff16151514610a8f576040517f08c379a0000000000000000000000000000000000000000000000000000000008152600401610a8690611e49565b60405180910390fd5b60008585905014158015610aa35750600083115b8015610aaf5750600082115b610aee576040517f08c379a0000000000000000000000000000000000000000000000000000000008152600401610ae590611de9565b60405180910390fd5b610af66114cb565b85858080601f016020809104026020016040519081016040528093929190818152602001838380828437600081840152601f19601f82011690508083019250505050505050816020018190525082816040018181525050806006600086815260200190815260200160002060008201518160000160006101000a81548160ff0219169083151502179055506020820151816001019080519060200190610b9d929190611509565b506040820151816002015560608201518160030160006101000a81548160ff02191690831515021790555060808201518160030160016101000a81548160ff02191690831515021790555060a08201518160030160026101000a81548160ff02191690831515021790555090505060058490806001815401808255809150506001900390600052602060002001600090919091909150556001915050949350505050565b6000600460149054906101000a900460ff16905090565b6000801515600460149054906101000a900460ff16151514610caf576040517f08c379a0000000000000000000000000000000000000000000000000000000008152600401610ca690611e49565b60405180910390fd5b60066000858152602001908152602001600020600080820160006101000a81549060ff0219169055600182016000610ce79190611597565b60028201600090556003820160006101000a81549060ff02191690556003820160016101000a81549060ff02191690556003820160026101000a81549060ff02191690555050828260059190610d3e9291906115df565b50600190509392505050565b6000600460009054906101000a900473ffffffffffffffffffffffffffffffffffffffff16905090565b6000600460149054906101000a900460ff16610dc5576040517f08c379a0000000000000000000000000000000000000000000000000000000008152600401610dbc90611e69565b60405180910390fd5b6000610dcf6113f7565b905060003073ffffffffffffffffffffffffffffffffffffffff1682604051610df790611d00565b60006040518083038185875af1925050503d8060008114610e34576040519150601f19603f3d011682016040523d82523d6000602084013e610e39565b606091505b5050905080610e7d576040517f08c379a0000000000000000000000000000000000000000000000000000000008152600401610e7490611e09565b60405180910390fd5b8160018190555060019250505090565b6000600254905090565b6000600360009054906101000a900473ffffffffffffffffffffffffffffffffffffffff1673ffffffffffffffffffffffffffffffffffffffff163373ffffffffffffffffffffffffffffffffffffffff161480610f425750600460009054906101000a900473ffffffffffffffffffffffffffffffffffffffff1673ffffffffffffffffffffffffffffffffffffffff163373ffffffffffffffffffffffffffffffffffffffff16145b610f4b57600080fd5b600360009054906101000a900473ffffffffffffffffffffffffffffffffffffffff1673ffffffffffffffffffffffffffffffffffffffff163373ffffffffffffffffffffffffffffffffffffffff161415610fc1576001600460166101000a81548160ff021916908315150217905550610fdd565b6001600460156101000a81548160ff0219169083151502179055505b60011515600460169054906101000a900460ff161515148015611013575060011515600460159054906101000a900460ff161515145b15611034576000600460146101000a81548160ff0219169083151502179055505b6001905090565b600360009054906101000a900473ffffffffffffffffffffffffffffffffffffffff1673ffffffffffffffffffffffffffffffffffffffff163373ffffffffffffffffffffffffffffffffffffffff16146110cb576040517f08c379a00000000000000000000000000000000000000000000000000000000081526004016110c290611e29565b60405180910390fd5b6006600082815260200190815260200160002060000160009054906101000a900460ff1661112e576040517f08c379a000000000000000000000000000000000000000000000000000000000815260040161112590611e89565b60405180910390fd5b6006600082815260200190815260200160002060030160009054906101000a900460ff16611191576040517f08c379a000000000000000000000000000000000000000000000000000000000815260040161118890611ee9565b60405180910390fd5b60016006600083815260200190815260200160002060030160016101000a81548160ff0219169083151502179055506006600082815260200190815260200160002060030160009054906101000a900460ff161561136e57600015156006600083815260200190815260200160002060030160029054906101000a900460ff16151514611253576040517f08c379a000000000000000000000000000000000000000000000000000000000815260040161124a90611ec9565b60405180910390fd5b6000600660008381526020019081526020016000206002015490506000600460009054906101000a900473ffffffffffffffffffffffffffffffffffffffff1673ffffffffffffffffffffffffffffffffffffffff16826040516112b690611d00565b60006040518083038185875af1925050503d80600081146112f3576040519150601f19603f3d011682016040523d82523d6000602084013e6112f8565b606091505b505090508061133c576040517f08c379a000000000000000000000000000000000000000000000000000000000815260040161133390611f09565b60405180910390fd5b60016006600085815260200190815260200160002060030160026101000a81548160ff02191690831515021790555050505b50565b6000600460169054906101000a900460ff16905090565b6000600460159054906101000a900460ff16905090565b606060058054806020026020016040519081016040528092919081815260200182805480156113ed57602002820191906000526020600020905b8154815260200190600101908083116113d9575b5050505050905090565b6000806000905060005b6005805490508111611435576006600082815260200190815260200160002060020154820191508080600101915050611401565b508091505090565b828054600181600116156101000203166002900490600052602060002090601f01602090048101928261147357600085556114ba565b82601f1061148c57803560ff19168380011785556114ba565b828001600101855582156114ba579182015b828111156114b957823582559160200191906001019061149e565b5b5090506114c7919061162c565b5090565b6040518060c0016040528060001515815260200160608152602001600081526020016000151581526020016000151581526020016000151581525090565b828054600181600116156101000203166002900490600052602060002090601f01602090048101928261153f5760008555611586565b82601f1061155857805160ff1916838001178555611586565b82800160010185558215611586579182015b8281111561158557825182559160200191906001019061156a565b5b509050611593919061162c565b5090565b50805460018160011615610100020316600290046000825580601f106115bd57506115dc565b601f0160209004906000526020600020908101906115db919061162c565b5b50565b82805482825590600052602060002090810192821561161b579160200282015b8281111561161a5782358255916020019190600101906115ff565b5b509050611628919061162c565b5090565b5b8082111561164557600081600090555060010161162d565b5090565b60008083601f84011261165b57600080fd5b8235905067ffffffffffffffff81111561167457600080fd5b60208301915083602082028301111561168c57600080fd5b9250929050565b60008083601f8401126116a557600080fd5b8235905067ffffffffffffffff8111156116be57600080fd5b6020830191508360018202830111156116d657600080fd5b9250929050565b6000813590506116ec81612030565b92915050565b6000806000806060858703121561170857600080fd5b600085013567ffffffffffffffff81111561172257600080fd5b61172e87828801611693565b94509450506020611741878288016116dd565b9250506040611752878288016116dd565b91505092959194509250565b60006020828403121561177057600080fd5b600061177e848285016116dd565b91505092915050565b60008060006040848603121561179c57600080fd5b60006117aa868287016116dd565b935050602084013567ffffffffffffffff8111156117c757600080fd5b6117d386828701611649565b92509250509250925092565b600080600080606085870312156117f557600080fd5b6000611803878288016116dd565b945050602085013567ffffffffffffffff81111561182057600080fd5b61182c87828801611693565b9350935050604061183f878288016116dd565b91505092959194509250565b60006118578383611ce2565b60208301905092915050565b61186c81611fa4565b82525050565b600061187d82611f54565b6118878185611f77565b935061189283611f44565b8060005b838110156118c35781516118aa888261184b565b97506118b583611f6a565b925050600181019050611896565b5085935050505092915050565b6118d981611fb6565b82525050565b60006118ea82611f5f565b6118f48185611f93565b9350611904818560208601611fec565b61190d8161201f565b840191505092915050565b6000611925603483611f93565b91507f596f75206d757374206164642061206465736372697074696f6e2c206e756d6260008301527f65722c20616e642076616c696420616d6f756e740000000000000000000000006020830152604082019050919050565b600061198b600d83611f93565b91507f457363726f77206661696c6564000000000000000000000000000000000000006000830152602082019050919050565b60006119cb602783611f93565b91507f4f6e6c79207468652070617965722063616e20636865636b206f66662074686560008301527f69722073696465000000000000000000000000000000000000000000000000006020830152604082019050919050565b6000611a31604983611f93565b91507f54686520636865636b6c69737420686173206265656e206c6f636b65642c206260008301527f6f74682070617274696573206d75737420756e6c6f636b20746f20616c6c6f7760208301527f206368616e6765732e00000000000000000000000000000000000000000000006040830152606082019050919050565b6000611abd604183611f93565b91507f426f74682070617274696573206d75737420616772656520746f20746865206360008301527f6865636b6c697374206265666f726520657363726f772d696e672066756e647360208301527f2e000000000000000000000000000000000000000000000000000000000000006040830152606082019050919050565b6000611b49601e83611f93565b91507f4e6f207461736b2065786973747320666f722074686174206e756d62657200006000830152602082019050919050565b6000611b89602c83611f93565b91507f4f6e6c792074686520636f6e74726163746f722063616e20636865636b206f6660008301527f66207468656972207369646500000000000000000000000000000000000000006020830152604082019050919050565b6000611bef600083611f88565b9150600082019050919050565b6000611c09601f83611f93565b91507f5461736b2068617320616c7265616479206265656e2070616964206f75742e006000830152602082019050919050565b6000611c49603e83611f93565b91507f43616e206f6e6c7920706179206f757420746f207461736b7320636f6e74726160008301527f63746f722068617320617373657274656420617320636f6d706c6574652e00006020830152604082019050919050565b6000611caf601b83611f93565b91507f506179206f7574207472616e73616374696f6e206661696c65642e00000000006000830152602082019050919050565b611ceb81611fe2565b82525050565b611cfa81611fe2565b82525050565b6000611d0b82611be2565b9150819050919050565b6000602082019050611d2a6000830184611863565b92915050565b60006020820190508181036000830152611d4a8184611872565b905092915050565b6000602082019050611d6760008301846118d0565b92915050565b60006020820190508181036000830152611d8781846118df565b905092915050565b600060a0820190508181036000830152611da981886118df565b9050611db86020830187611cf1565b611dc560408301866118d0565b611dd260608301856118d0565b611ddf60808301846118d0565b9695505050505050565b60006020820190508181036000830152611e0281611918565b9050919050565b60006020820190508181036000830152611e228161197e565b9050919050565b60006020820190508181036000830152611e42816119be565b9050919050565b60006020820190508181036000830152611e6281611a24565b9050919050565b60006020820190508181036000830152611e8281611ab0565b9050919050565b60006020820190508181036000830152611ea281611b3c565b9050919050565b60006020820190508181036000830152611ec281611b7c565b9050919050565b60006020820190508181036000830152611ee281611bfc565b9050919050565b60006020820190508181036000830152611f0281611c3c565b9050919050565b60006020820190508181036000830152611f2281611ca2565b9050919050565b6000602082019050611f3e6000830184611cf1565b92915050565b6000819050602082019050919050565b600081519050919050565b600081519050919050565b6000602082019050919050565b600082825260208201905092915050565b600081905092915050565b600082825260208201905092915050565b6000611faf82611fc2565b9050919050565b60008115159050919050565b600073ffffffffffffffffffffffffffffffffffffffff82169050919050565b6000819050919050565b60005b8381101561200a578082015181840152602081019050611fef565b83811115612019576000848401525b50505050565b6000601f19601f8301169050919050565b61203981611fe2565b811461204457600080fd5b5056fea2646970667358221220ef357d6c31d4abac8dd4a7be5ee84d024b3060dd89290297dd6f2742a1f28b5e64736f6c63430007060033",
  "immutableReferences": {},
  "source": "pragma solidity >=0.6.0 <0.8.0;\npragma experimental ABIEncoderV2;\n//import \"./dBank.sol\";\n\n\n//struct IndexValue {\n//  uint keyIndex; uint value;\n//}\n//struct KeyFlag {\n//  uint key; bool deleted;\n//}\n//struct KeyValue {\n//  uint key; uint value;\n//}\n//\n//struct itmap\n//{\n//  mapping(uint => IndexValue) data;\n//  KeyFlag[] keys;\n//  uint size;\n//}\n\n//  struct subTask{\n//    string subDescription;\n//  }\n//dBank private dbank;  // The contractor's chosen bank that handles the splitting of the funds\n//  enum completionLevel{Complete, inProgress, notStarted}\n\ncontract Checklist {\n  string public name;  // Name of the agreement\n  uint funds;  // Amount of funds in the contract\n  uint cost;  // Calculated price of the checklist\n  address payable payer;\n  address payable contractor;\n  struct Task {bool init; string description; uint amount; bool contractorCheck; bool payerCheck; bool payedOut;}\n\n  bool locked;  // Once checklist locked do not allow changing of checklist\n  bool contractorUnlock = true;  // Allow\n  bool payerUnlock = true;\n  uint[] taskNumbers;\n  mapping (uint => Task) taskLookup;\n\n  constructor(address payable payer_, string memory _name) public {\n    contractor = msg.sender;  // assign initiator as the contractor\n    payer = payer_;\n    name = _name;\n    funds = 0;\n  }\n\n  function addTask(string calldata description_, uint number, uint amount) external returns (bool){\n    require(locked==false, 'The checklist has been locked, both parties must unlock to allow changes.');\n    require(bytes(description_).length!=0 && number>0 && amount>0, 'You must add a description, number, and valid amount');\n    Task memory task_;\n    task_.description = description_;\n    task_.amount = amount;\n    // task_.init = true;\n    taskLookup[number] = task_;  // Add task to task mapping (where you can access task structs)\n    taskNumbers.push(number);  // Add task number to list of task numbers\n    return true;\n  }\n  function changeTask(uint number, string calldata _description, uint _amount) external returns (bool) {\n    require(locked==false, 'The checklist has been locked, both parties must unlock to allow changes.');\n    require(bytes(_description).length!=0 && number>0 && _amount>0, 'You must add a description, number, and valid amount');\n    taskLookup[number].description = _description;\n    taskLookup[number].amount = _amount;\n    return true;\n  }\n  function removeTask(uint number, uint[] calldata taskNumbers_) public returns (bool){\n    require(locked==false, 'The checklist has been locked, both parties must unlock to allow changes.');\n    delete taskLookup[number];  // Delete task number \"order\"\n    taskNumbers = taskNumbers_; // Client side reassign the array of task numbers\n    return true;\n  }\n  function getTask(uint number) public view returns(string memory, uint, bool, bool, bool) {\n//    Task memory _task = taskLookup[number];\n    return (taskLookup[number].description, taskLookup[number].amount,\n    taskLookup[number].contractorCheck, taskLookup[number].payerCheck, taskLookup[number].payedOut);\n  }\n  function computePrice() internal view returns(uint){\n    uint totalPayment = 0;\n    for (uint i = 0; i <= taskNumbers.length; i++) {\n      totalPayment += taskLookup[i].amount;\n    }\n    return totalPayment;\n  }\n  function lockChecklist() public returns (bool){  // Both the contractor and payer have to call this function\n    require(msg.sender==payer || msg.sender==contractor);\n    if (msg.sender==payer){\n      payerUnlock = false;\n    } else{\n       contractorUnlock = false;\n    }\n    if (payerUnlock==false && contractorUnlock==false){\n      locked = true;\n    }\n    return true;\n  }\n  function escrowPayer() public returns (bool){\n    require(locked, 'Both parties must agree to the checklist before escrow-ing funds.');\n    uint totalPayment = computePrice();\n    (bool success, ) = address(this).call{value: totalPayment}(\"\");\n    require(success, 'Escrow failed');\n    funds = totalPayment;\n    return true;\n  }\n\n  function unlockChecklist() public returns (bool){\n    require(msg.sender==payer || msg.sender==contractor);\n    if (msg.sender==payer){\n      payerUnlock = true;\n    } else{\n       contractorUnlock = true;\n    }\n    if (payerUnlock==true && contractorUnlock==true){\n      locked = false;\n    }\n    return true;\n  }\n\n  function contractorCheckOff(uint number) public {\n    require(msg.sender==contractor, 'Only the contractor can check off their side');\n    require(taskLookup[number].init, 'No task exists for that number');\n    taskLookup[number].contractorCheck = true;\n  }\n  function payerCheckOff(uint number) public {\n    require(msg.sender==payer, 'Only the payer can check off their side');\n    require(taskLookup[number].init, 'No task exists for that number');\n    require(taskLookup[number].contractorCheck, 'Can only pay out to tasks contractor has asserted as complete.');\n\n    taskLookup[number].payerCheck = true;\n    if (taskLookup[number].contractorCheck){  // Both parties agreed to the task being finished, pay out\n      require(taskLookup[number].payedOut==false, 'Task has already been paid out.');\n      uint payout = taskLookup[number].amount;\n      (bool success, ) = contractor.call{value: payout}(\"\");  // Pay contractor\n      require(success, 'Pay out transaction failed.');\n      taskLookup[number].payedOut = true;\n    }\n  }\n\n  function getName() public view returns(string memory){\n    return name;\n  }\n  function getFunds() public view returns(uint){\n    return funds;\n  }\n  function getCost() public view returns(uint){\n    return cost;\n  }\n  function getPayer() public view returns(address payable){\n    return payer;\n  }\n  function getContractor() public view returns(address payable){\n    return contractor;\n  }\n  function getLockStatus() public view returns(bool){\n    return locked;\n  }\n  function getContractorUnlock() public view returns(bool){\n    return contractorUnlock;\n  }\n  function getPayerUnlock() public view returns(bool){\n    return payerUnlock;\n  }\n  function getTaskNumbers() public view returns(uint[] memory){\n    return taskNumbers;\n  }\n}\n",
  "sourcePath": "/Users/alexa/PycharmProjects/dChecklist/src/contracts/Checklist.sol",
  "compiler": {
    "name": "solc",
    "version": "0.7.6+commit.7338295f.Emscripten.clang"
  },
  "schemaVersion": "3.2.3",
  "updatedAt": "2021-05-14T15:15:20.690Z",
  "networkType": "ethereum",
  "devdoc": {
    "kind": "dev",
    "methods": {},
    "version": 1
  },
  "userdoc": {
    "kind": "user",
    "methods": {},
    "version": 1
  }
}