{
  "contractName": "Checklist",
  "abi": [
    {
      "inputs": [
        {
          "internalType": "address payable",
          "name": "payer_",
          "type": "address"
        },
        {
          "internalType": "string",
          "name": "_name",
          "type": "string"
        }
      ],
      "stateMutability": "nonpayable",
      "type": "constructor"
    },
    {
      "inputs": [],
      "name": "name",
      "outputs": [
        {
          "internalType": "string",
          "name": "",
          "type": "string"
        }
      ],
      "stateMutability": "view",
      "type": "function"
    },
    {
      "inputs": [
        {
          "internalType": "uint256",
          "name": "",
          "type": "uint256"
        }
      ],
      "name": "taskLookup",
      "outputs": [
        {
          "internalType": "bool",
          "name": "init",
          "type": "bool"
        },
        {
          "internalType": "string",
          "name": "description",
          "type": "string"
        },
        {
          "internalType": "uint256",
          "name": "amount",
          "type": "uint256"
        },
        {
          "internalType": "bool",
          "name": "contractorCheck",
          "type": "bool"
        },
        {
          "internalType": "bool",
          "name": "payerCheck",
          "type": "bool"
        },
        {
          "internalType": "bool",
          "name": "payedOut",
          "type": "bool"
        }
      ],
      "stateMutability": "view",
      "type": "function"
    },
    {
      "inputs": [
        {
          "internalType": "string",
          "name": "description_",
          "type": "string"
        },
        {
          "internalType": "uint256",
          "name": "number",
          "type": "uint256"
        },
        {
          "internalType": "uint256",
          "name": "amount",
          "type": "uint256"
        }
      ],
      "name": "addTask",
      "outputs": [
        {
          "internalType": "bool",
          "name": "",
          "type": "bool"
        }
      ],
      "stateMutability": "nonpayable",
      "type": "function"
    },
    {
      "inputs": [
        {
          "internalType": "uint256",
          "name": "number",
          "type": "uint256"
        },
        {
          "internalType": "string",
          "name": "_description",
          "type": "string"
        },
        {
          "internalType": "uint256",
          "name": "_amount",
          "type": "uint256"
        }
      ],
      "name": "changeTask",
      "outputs": [
        {
          "internalType": "bool",
          "name": "",
          "type": "bool"
        },
        {
          "internalType": "uint256",
          "name": "",
          "type": "uint256"
        }
      ],
      "stateMutability": "nonpayable",
      "type": "function"
    },
    {
      "inputs": [
        {
          "internalType": "uint256",
          "name": "number",
          "type": "uint256"
        },
        {
          "internalType": "uint256[]",
          "name": "taskNumbers_",
          "type": "uint256[]"
        }
      ],
      "name": "removeTask",
      "outputs": [
        {
          "internalType": "bool",
          "name": "",
          "type": "bool"
        }
      ],
      "stateMutability": "nonpayable",
      "type": "function"
    },
    {
      "inputs": [
        {
          "internalType": "uint256",
          "name": "number",
          "type": "uint256"
        }
      ],
      "name": "getTask",
      "outputs": [
        {
          "internalType": "string",
          "name": "",
          "type": "string"
        },
        {
          "internalType": "uint256",
          "name": "",
          "type": "uint256"
        },
        {
          "internalType": "bool",
          "name": "",
          "type": "bool"
        },
        {
          "internalType": "bool",
          "name": "",
          "type": "bool"
        },
        {
          "internalType": "bool",
          "name": "",
          "type": "bool"
        }
      ],
      "stateMutability": "view",
      "type": "function"
    },
    {
      "inputs": [],
      "name": "lockChecklist",
      "outputs": [
        {
          "internalType": "bool",
          "name": "",
          "type": "bool"
        }
      ],
      "stateMutability": "nonpayable",
      "type": "function"
    },
    {
      "inputs": [],
      "name": "escrowPayer",
      "outputs": [
        {
          "internalType": "bool",
          "name": "",
          "type": "bool"
        }
      ],
      "stateMutability": "nonpayable",
      "type": "function"
    },
    {
      "inputs": [],
      "name": "unlockChecklist",
      "outputs": [
        {
          "internalType": "bool",
          "name": "",
          "type": "bool"
        }
      ],
      "stateMutability": "nonpayable",
      "type": "function"
    },
    {
      "inputs": [
        {
          "internalType": "uint256",
          "name": "number",
          "type": "uint256"
        }
      ],
      "name": "contractorCheckOff",
      "outputs": [],
      "stateMutability": "nonpayable",
      "type": "function"
    },
    {
      "inputs": [
        {
          "internalType": "uint256",
          "name": "number",
          "type": "uint256"
        }
      ],
      "name": "payerCheckOff",
      "outputs": [],
      "stateMutability": "nonpayable",
      "type": "function"
    },
    {
      "inputs": [],
      "name": "getName",
      "outputs": [
        {
          "internalType": "string",
          "name": "",
          "type": "string"
        }
      ],
      "stateMutability": "view",
      "type": "function"
    },
    {
      "inputs": [],
      "name": "getFunds",
      "outputs": [
        {
          "internalType": "uint256",
          "name": "",
          "type": "uint256"
        }
      ],
      "stateMutability": "view",
      "type": "function"
    },
    {
      "inputs": [],
      "name": "getCost",
      "outputs": [
        {
          "internalType": "uint256",
          "name": "",
          "type": "uint256"
        }
      ],
      "stateMutability": "view",
      "type": "function"
    },
    {
      "inputs": [],
      "name": "getPayer",
      "outputs": [
        {
          "internalType": "address payable",
          "name": "",
          "type": "address"
        }
      ],
      "stateMutability": "view",
      "type": "function"
    },
    {
      "inputs": [],
      "name": "getContractor",
      "outputs": [
        {
          "internalType": "address payable",
          "name": "",
          "type": "address"
        }
      ],
      "stateMutability": "view",
      "type": "function"
    },
    {
      "inputs": [],
      "name": "getLockStatus",
      "outputs": [
        {
          "internalType": "bool",
          "name": "",
          "type": "bool"
        }
      ],
      "stateMutability": "view",
      "type": "function"
    },
    {
      "inputs": [],
      "name": "getContractorUnlock",
      "outputs": [
        {
          "internalType": "bool",
          "name": "",
          "type": "bool"
        }
      ],
      "stateMutability": "view",
      "type": "function"
    },
    {
      "inputs": [],
      "name": "getPayerUnlock",
      "outputs": [
        {
          "internalType": "bool",
          "name": "",
          "type": "bool"
        }
      ],
      "stateMutability": "view",
      "type": "function"
    },
    {
      "inputs": [],
      "name": "getTaskNumbers",
      "outputs": [
        {
          "internalType": "uint256[]",
          "name": "",
          "type": "uint256[]"
        }
      ],
      "stateMutability": "view",
      "type": "function"
    }
  ],
  "bytecode": "0x60806040526001600560156101000a81548160ff0219169083151502179055506001600560166101000a81548160ff0219169083151502179055503480156200004757600080fd5b506040516200289c3803806200289c83398181016040528101906200006d919062000265565b33600560006101000a81548173ffffffffffffffffffffffffffffffffffffffff021916908373ffffffffffffffffffffffffffffffffffffffff16021790555081600460006101000a81548173ffffffffffffffffffffffffffffffffffffffff021916908373ffffffffffffffffffffffffffffffffffffffff16021790555080600190805190602001906200010792919062000126565b50600060028190555042600681905550426007819055505050620003ac565b828054600181600116156101000203166002900490600052602060002090601f0160209004810192826200015e5760008555620001aa565b82601f106200017957805160ff1916838001178555620001aa565b82800160010185558215620001aa579182015b82811115620001a95782518255916020019190600101906200018c565b5b509050620001b99190620001bd565b5090565b5b80821115620001d8576000816000905550600101620001be565b5090565b6000620001f3620001ed84620002f3565b620002bf565b9050828152602081018484840111156200020c57600080fd5b620002198482856200035a565b509392505050565b600081519050620002328162000392565b92915050565b600082601f8301126200024a57600080fd5b81516200025c848260208601620001dc565b91505092915050565b600080604083850312156200027957600080fd5b6000620002898582860162000221565b925050602083015167ffffffffffffffff811115620002a757600080fd5b620002b58582860162000238565b9150509250929050565b6000604051905081810181811067ffffffffffffffff82111715620002e957620002e862000390565b5b8060405250919050565b600067ffffffffffffffff82111562000311576200031062000390565b5b601f19601f8301169050602081019050919050565b600062000333826200033a565b9050919050565b600073ffffffffffffffffffffffffffffffffffffffff82169050919050565b60005b838110156200037a5780820151818401526020810190506200035d565b838111156200038a576000848401525b50505050565bfe5b6200039d8162000326565b8114620003a957600080fd5b50565b6124e080620003bc6000396000f3fe608060405234801561001057600080fd5b506004361061012c5760003560e01c80639ae8ad45116100ad578063d07fc30311610071578063d07fc30314610355578063d60b547c14610373578063da6dadc31461038f578063ea914345146103ad578063eef9d99d146103cb5761012c565b80639ae8ad45146102ad578063b600dcdc146102cb578063b6cb405b146102fb578063b76e4da214610319578063bd3e19d4146103375761012c565b806330aa81c6116100f457806330aa81c6146101f05780634d9b37351461020e578063593cac271461022c5780635d81df1a14610261578063772316491461027d5761012c565b806306fdde0314610131578063075a175e1461014f57806317d7de7c146101805780631d65e77e1461019e5780632f95593d146101d2575b600080fd5b6101396103e9565b604051610146919061211e565b60405180910390f35b61016960048036038101906101649190611a59565b610487565b6040516101779291906120f5565b60405180910390f35b610188610597565b604051610195919061211e565b60405180910390f35b6101b860048036038101906101b391906119d8565b610639565b6040516101c9959493929190612140565b60405180910390f35b6101da610789565b6040516101e79190612072565b60405180910390f35b6101f8610962565b6040516102059190612035565b60405180910390f35b61021661098c565b604051610223919061231a565b60405180910390f35b610246600480360381019061024191906119d8565b610996565b6040516102589695949392919061208d565b60405180910390f35b61027b600480360381019061027691906119d8565b610a9e565b005b61029760048036038101906102929190611971565b610bc3565b6040516102a49190612072565b60405180910390f35b6102b5610e03565b6040516102c29190612072565b60405180910390f35b6102e560048036038101906102e09190611a01565b610e1a565b6040516102f29190612072565b60405180910390f35b610303610f0c565b6040516103109190612035565b60405180910390f35b610321610f36565b60405161032e9190612072565b60405180910390f35b61033f61104f565b60405161034c919061231a565b60405180910390f35b61035d611059565b60405161036a9190612072565b60405180910390f35b61038d600480360381019061038891906119d8565b6111fd565b005b610397611588565b6040516103a49190612072565b60405180910390f35b6103b561159f565b6040516103c29190612072565b60405180910390f35b6103d36115b6565b6040516103e09190612050565b60405180910390f35b60018054600181600116156101000203166002900480601f01602080910402602001604051908101604052809291908181526020018280546001816001161561010002031660029004801561047f5780601f106104545761010080835404028352916020019161047f565b820191906000526020600020905b81548152906001019060200180831161046257829003601f168201915b505050505081565b60008060001515600560149054906101000a900460ff161515146104e0576040517f08c379a00000000000000000000000000000000000000000000000000000000081526004016104d79061225a565b60405180910390fd5b600085859050141580156104f45750600086115b80156105005750600083115b61053f576040517f08c379a0000000000000000000000000000000000000000000000000000000008152600401610536906121ba565b60405180910390fd5b8484600960008981526020019081526020016000206001019190610564929190611654565b50826009600088815260200190815260200160002060020181905550600161058a61160e565b9150915094509492505050565b606060018054600181600116156101000203166002900480601f01602080910402602001604051908101604052809291908181526020018280546001816001161561010002031660029004801561062f5780601f106106045761010080835404028352916020019161062f565b820191906000526020600020905b81548152906001019060200180831161061257829003601f168201915b5050505050905090565b60606000806000806009600087815260200190815260200160002060010160096000888152602001908152602001600020600201546009600089815260200190815260200160002060030160009054906101000a900460ff16600960008a815260200190815260200160002060030160019054906101000a900460ff16600960008b815260200190815260200160002060030160029054906101000a900460ff16848054600181600116156101000203166002900480601f01602080910402602001604051908101604052809291908181526020018280546001816001161561010002031660029004801561076f5780601f106107445761010080835404028352916020019161076f565b820191906000526020600020905b81548152906001019060200180831161075257829003601f168201915b505050505094509450945094509450945091939590929450565b6000600460009054906101000a900473ffffffffffffffffffffffffffffffffffffffff1673ffffffffffffffffffffffffffffffffffffffff163373ffffffffffffffffffffffffffffffffffffffff1614806108345750600560009054906101000a900473ffffffffffffffffffffffffffffffffffffffff1673ffffffffffffffffffffffffffffffffffffffff163373ffffffffffffffffffffffffffffffffffffffff16145b61083d57600080fd5b600460009054906101000a900473ffffffffffffffffffffffffffffffffffffffff1673ffffffffffffffffffffffffffffffffffffffff163373ffffffffffffffffffffffffffffffffffffffff1614156108c257600560169054906101000a900460ff1615600560166101000a81548160ff0219169083151502179055506108ed565b600560159054906101000a900460ff1615600560156101000a81548160ff0219169083151502179055505b60001515600560169054906101000a900460ff161515148015610923575060001515600560159054906101000a900460ff161515145b1561095b576001600560146101000a81548160ff021916908315150217905550600061094d610f36565b90508061095957600080fd5b505b6001905090565b6000600460009054906101000a900473ffffffffffffffffffffffffffffffffffffffff16905090565b6000600254905090565b60096020528060005260406000206000915090508060000160009054906101000a900460ff1690806001018054600181600116156101000203166002900480601f016020809104026020016040519081016040528092919081815260200182805460018160011615610100020316600290048015610a555780601f10610a2a57610100808354040283529160200191610a55565b820191906000526020600020905b815481529060010190602001808311610a3857829003601f168201915b5050505050908060020154908060030160009054906101000a900460ff16908060030160019054906101000a900460ff16908060030160029054906101000a900460ff16905086565b600560009054906101000a900473ffffffffffffffffffffffffffffffffffffffff1673ffffffffffffffffffffffffffffffffffffffff163373ffffffffffffffffffffffffffffffffffffffff1614610b2e576040517f08c379a0000000000000000000000000000000000000000000000000000000008152600401610b25906122ba565b60405180910390fd5b6009600082815260200190815260200160002060000160009054906101000a900460ff16610b91576040517f08c379a0000000000000000000000000000000000000000000000000000000008152600401610b889061229a565b60405180910390fd5b60016009600083815260200190815260200160002060030160006101000a81548160ff02191690831515021790555050565b6000801515600560149054906101000a900460ff16151514610c1a576040517f08c379a0000000000000000000000000000000000000000000000000000000008152600401610c119061225a565b60405180910390fd5b6000845114158015610c2c5750600083115b8015610c385750600082115b610c77576040517f08c379a0000000000000000000000000000000000000000000000000000000008152600401610c6e906121ba565b60405180910390fd5b610c7f6116e2565b848160200181905250828160400181815250506001816000019015159081151581525050806009600086815260200190815260200160002060008201518160000160006101000a81548160ff0219169083151502179055506020820151816001019080519060200190610cf3929190611720565b506040820151816002015560608201518160030160006101000a81548160ff02191690831515021790555060808201518160030160016101000a81548160ff02191690831515021790555060a08201518160030160026101000a81548160ff0219169083151502179055509050506008849080600181540180825580915050600190039060005260206000200160009091909190915055806000015115156009600086815260200190815260200160002060000160009054906101000a900460ff16151514610df7576040517f08c379a0000000000000000000000000000000000000000000000000000000008152600401610dee9061219a565b60405180910390fd5b60019150509392505050565b6000600560149054906101000a900460ff16905090565b6000801515600560149054906101000a900460ff16151514610e71576040517f08c379a0000000000000000000000000000000000000000000000000000000008152600401610e689061225a565b60405180910390fd5b60096000858152602001908152602001600020600080820160006101000a81549060ff0219169055600182016000610ea991906117ae565b60028201600090556003820160006101000a81549060ff02191690556003820160016101000a81549060ff02191690556003820160026101000a81549060ff02191690555050828260089190610f009291906117f6565b50600190509392505050565b6000600560009054906101000a900473ffffffffffffffffffffffffffffffffffffffff16905090565b6000600560149054906101000a900460ff16610f87576040517f08c379a0000000000000000000000000000000000000000000000000000000008152600401610f7e9061227a565b60405180910390fd5b6000610f9161160e565b905060003073ffffffffffffffffffffffffffffffffffffffff1682604051610fb990612020565b60006040518083038185875af1925050503d8060008114610ff6576040519150601f19603f3d011682016040523d82523d6000602084013e610ffb565b606091505b505090508061103f576040517f08c379a0000000000000000000000000000000000000000000000000000000008152600401611036906121fa565b60405180910390fd5b8160028190555060019250505090565b6000600354905090565b6000600460009054906101000a900473ffffffffffffffffffffffffffffffffffffffff1673ffffffffffffffffffffffffffffffffffffffff163373ffffffffffffffffffffffffffffffffffffffff1614806111045750600560009054906101000a900473ffffffffffffffffffffffffffffffffffffffff1673ffffffffffffffffffffffffffffffffffffffff163373ffffffffffffffffffffffffffffffffffffffff16145b61110d57600080fd5b600460009054906101000a900473ffffffffffffffffffffffffffffffffffffffff1673ffffffffffffffffffffffffffffffffffffffff163373ffffffffffffffffffffffffffffffffffffffff161415611183576001600560166101000a81548160ff02191690831515021790555061119f565b6001600560156101000a81548160ff0219169083151502179055505b60011515600560169054906101000a900460ff1615151480156111d5575060011515600560159054906101000a900460ff161515145b156111f6576000600560146101000a81548160ff0219169083151502179055505b6001905090565b600460009054906101000a900473ffffffffffffffffffffffffffffffffffffffff1673ffffffffffffffffffffffffffffffffffffffff163373ffffffffffffffffffffffffffffffffffffffff161461128d576040517f08c379a00000000000000000000000000000000000000000000000000000000081526004016112849061223a565b60405180910390fd5b6009600082815260200190815260200160002060000160009054906101000a900460ff166112f0576040517f08c379a00000000000000000000000000000000000000000000000000000000081526004016112e79061229a565b60405180910390fd5b6009600082815260200190815260200160002060030160009054906101000a900460ff16611353576040517f08c379a000000000000000000000000000000000000000000000000000000000815260040161134a906121da565b60405180910390fd5b60016009600083815260200190815260200160002060030160016101000a81548160ff0219169083151502179055506009600082815260200190815260200160002060030160009054906101000a900460ff161561158557600015156009600083815260200190815260200160002060030160029054906101000a900460ff16151514611415576040517f08c379a000000000000000000000000000000000000000000000000000000000815260040161140c906122da565b60405180910390fd5b600060096000838152602001908152602001600020600201549050600254811115611475576040517f08c379a000000000000000000000000000000000000000000000000000000000815260040161146c9061221a565b60405180910390fd5b6000600560009054906101000a900473ffffffffffffffffffffffffffffffffffffffff1673ffffffffffffffffffffffffffffffffffffffff16826040516114bd90612020565b60006040518083038185875af1925050503d80600081146114fa576040519150601f19603f3d011682016040523d82523d6000602084013e6114ff565b606091505b5050905080611543576040517f08c379a000000000000000000000000000000000000000000000000000000000815260040161153a906122fa565b60405180910390fd5b60016009600085815260200190815260200160002060030160026101000a81548160ff0219169083151502179055508160026000828254039250508190555050505b50565b6000600560169054906101000a900460ff16905090565b6000600560159054906101000a900460ff16905090565b6060600880548060200260200160405190810160405280929190818152602001828054801561160457602002820191906000526020600020905b8154815260200190600101908083116115f0575b5050505050905090565b6000806000905060005b600880549050811161164c576009600082815260200190815260200160002060020154820191508080600101915050611618565b508091505090565b828054600181600116156101000203166002900490600052602060002090601f01602090048101928261168a57600085556116d1565b82601f106116a357803560ff19168380011785556116d1565b828001600101855582156116d1579182015b828111156116d05782358255916020019190600101906116b5565b5b5090506116de9190611843565b5090565b6040518060c0016040528060001515815260200160608152602001600081526020016000151581526020016000151581526020016000151581525090565b828054600181600116156101000203166002900490600052602060002090601f016020900481019282611756576000855561179d565b82601f1061176f57805160ff191683800117855561179d565b8280016001018555821561179d579182015b8281111561179c578251825591602001919060010190611781565b5b5090506117aa9190611843565b5090565b50805460018160011615610100020316600290046000825580601f106117d457506117f3565b601f0160209004906000526020600020908101906117f29190611843565b5b50565b828054828255906000526020600020908101928215611832579160200282015b82811115611831578235825591602001919060010190611816565b5b50905061183f9190611843565b5090565b5b8082111561185c576000816000905550600101611844565b5090565b600061187361186e84612366565b612335565b90508281526020810184848401111561188b57600080fd5b61189684828561243e565b509392505050565b60008083601f8401126118b057600080fd5b8235905067ffffffffffffffff8111156118c957600080fd5b6020830191508360208202830111156118e157600080fd5b9250929050565b60008083601f8401126118fa57600080fd5b8235905067ffffffffffffffff81111561191357600080fd5b60208301915083600182028301111561192b57600080fd5b9250929050565b600082601f83011261194357600080fd5b8135611953848260208601611860565b91505092915050565b60008135905061196b81612493565b92915050565b60008060006060848603121561198657600080fd5b600084013567ffffffffffffffff8111156119a057600080fd5b6119ac86828701611932565b93505060206119bd8682870161195c565b92505060406119ce8682870161195c565b9150509250925092565b6000602082840312156119ea57600080fd5b60006119f88482850161195c565b91505092915050565b600080600060408486031215611a1657600080fd5b6000611a248682870161195c565b935050602084013567ffffffffffffffff811115611a4157600080fd5b611a4d8682870161189e565b92509250509250925092565b60008060008060608587031215611a6f57600080fd5b6000611a7d8782880161195c565b945050602085013567ffffffffffffffff811115611a9a57600080fd5b611aa6878288016118e8565b93509350506040611ab98782880161195c565b91505092959194509250565b6000611ad18383612002565b60208301905092915050565b611ae6816123f6565b82525050565b6000611af7826123a6565b611b0181856123c9565b9350611b0c83612396565b8060005b83811015611b3d578151611b248882611ac5565b9750611b2f836123bc565b925050600181019050611b10565b5085935050505092915050565b611b5381612408565b82525050565b6000611b64826123b1565b611b6e81856123e5565b9350611b7e81856020860161244d565b611b8781612482565b840191505092915050565b6000611b9f6016836123e5565b91507f4d617070696e6720757064617465206661696c65642e000000000000000000006000830152602082019050919050565b6000611bdf6034836123e5565b91507f596f75206d757374206164642061206465736372697074696f6e2c206e756d6260008301527f65722c20616e642076616c696420616d6f756e740000000000000000000000006020830152604082019050919050565b6000611c456040836123e5565b91507f43616e206f6e6c7920706179206f757420666f72207461736b7320636f6e747260008301527f6163746f722068617320617373657274656420617320636f6d706c657465642e6020830152604082019050919050565b6000611cab600d836123e5565b91507f457363726f77206661696c6564000000000000000000000000000000000000006000830152602082019050919050565b6000611ceb6038836123e5565b91507f436f6e7472616374277320657363726f7765642066756e647320617265206c6560008301527f7373207468616e20746865207061796f757420707269636500000000000000006020830152604082019050919050565b6000611d516027836123e5565b91507f4f6e6c79207468652070617965722063616e20636865636b206f66662074686560008301527f69722073696465000000000000000000000000000000000000000000000000006020830152604082019050919050565b6000611db76049836123e5565b91507f54686520636865636b6c69737420686173206265656e206c6f636b65642c206260008301527f6f74682070617274696573206d75737420756e6c6f636b20746f20616c6c6f7760208301527f206368616e6765732e00000000000000000000000000000000000000000000006040830152606082019050919050565b6000611e436041836123e5565b91507f426f74682070617274696573206d75737420616772656520746f20746865206360008301527f6865636b6c697374206265666f726520657363726f772d696e672066756e647360208301527f2e000000000000000000000000000000000000000000000000000000000000006040830152606082019050919050565b6000611ecf601e836123e5565b91507f4e6f207461736b2065786973747320666f722074686174206e756d62657200006000830152602082019050919050565b6000611f0f602c836123e5565b91507f4f6e6c792074686520636f6e74726163746f722063616e20636865636b206f6660008301527f66207468656972207369646500000000000000000000000000000000000000006020830152604082019050919050565b6000611f756000836123da565b9150600082019050919050565b6000611f8f601f836123e5565b91507f5461736b2068617320616c7265616479206265656e2070616964206f75742e006000830152602082019050919050565b6000611fcf601b836123e5565b91507f506179206f7574207472616e73616374696f6e206661696c65642e00000000006000830152602082019050919050565b61200b81612434565b82525050565b61201a81612434565b82525050565b600061202b82611f68565b9150819050919050565b600060208201905061204a6000830184611add565b92915050565b6000602082019050818103600083015261206a8184611aec565b905092915050565b60006020820190506120876000830184611b4a565b92915050565b600060c0820190506120a26000830189611b4a565b81810360208301526120b48188611b59565b90506120c36040830187612011565b6120d06060830186611b4a565b6120dd6080830185611b4a565b6120ea60a0830184611b4a565b979650505050505050565b600060408201905061210a6000830185611b4a565b6121176020830184612011565b9392505050565b600060208201905081810360008301526121388184611b59565b905092915050565b600060a082019050818103600083015261215a8188611b59565b90506121696020830187612011565b6121766040830186611b4a565b6121836060830185611b4a565b6121906080830184611b4a565b9695505050505050565b600060208201905081810360008301526121b381611b92565b9050919050565b600060208201905081810360008301526121d381611bd2565b9050919050565b600060208201905081810360008301526121f381611c38565b9050919050565b6000602082019050818103600083015261221381611c9e565b9050919050565b6000602082019050818103600083015261223381611cde565b9050919050565b6000602082019050818103600083015261225381611d44565b9050919050565b6000602082019050818103600083015261227381611daa565b9050919050565b6000602082019050818103600083015261229381611e36565b9050919050565b600060208201905081810360008301526122b381611ec2565b9050919050565b600060208201905081810360008301526122d381611f02565b9050919050565b600060208201905081810360008301526122f381611f82565b9050919050565b6000602082019050818103600083015261231381611fc2565b9050919050565b600060208201905061232f6000830184612011565b92915050565b6000604051905081810181811067ffffffffffffffff8211171561235c5761235b612480565b5b8060405250919050565b600067ffffffffffffffff82111561238157612380612480565b5b601f19601f8301169050602081019050919050565b6000819050602082019050919050565b600081519050919050565b600081519050919050565b6000602082019050919050565b600082825260208201905092915050565b600081905092915050565b600082825260208201905092915050565b600061240182612414565b9050919050565b60008115159050919050565b600073ffffffffffffffffffffffffffffffffffffffff82169050919050565b6000819050919050565b82818337600083830152505050565b60005b8381101561246b578082015181840152602081019050612450565b8381111561247a576000848401525b50505050565bfe5b6000601f19601f8301169050919050565b61249c81612434565b81146124a757600080fd5b5056fea264697066735822122017eb42fd0fe0e4374807ea19fe46a4fe02eb1fb223e4055e728966e873fc4c6264736f6c63430007060033",
  "immutableReferences": {},
  "source": "pragma solidity >=0.6.0 <0.8.0;\npragma experimental ABIEncoderV2;\nimport \"./Token.sol\";\n\n\n//struct IndexValue {\n//  uint keyIndex; uint value;\n//}\n//struct KeyFlag {\n//  uint key; bool deleted;\n//}\n//struct KeyValue {\n//  uint key; uint value;\n//}\n//\n//struct itmap\n//{\n//  mapping(uint => IndexValue) data;\n//  KeyFlag[] keys;\n//  uint size;\n//}\n\n//  struct subTask{\n//    string subDescription;\n//  }\n//dBank private dbank;  // The contractor's chosen bank that handles the splitting of the funds\n//  enum completionLevel{Complete, inProgress, notStarted}\n\ncontract Checklist {\n  Token token;\n  string public name;  // Name of the agreement\n  uint funds;  // Amount of funds in the contract\n  uint cost;  // Calculated price of the checklist\n  address payable payer;\n  address payable contractor;\n  struct Task {bool init; string description; uint amount; bool contractorCheck; bool payerCheck; bool payedOut;}\n\n  bool locked;  // Once checklist locked do not allow changing of checklist\n  bool contractorUnlock = true;  // Allow\n  bool payerUnlock = true;\n  uint initTime;\n  uint deadline;\n  uint[] taskNumbers;\n  mapping (uint => Task) public taskLookup;\n\n  constructor(address payable payer_, string memory _name) public {\n    contractor = msg.sender;  // assign initiator as the contractor\n    payer = payer_;\n    name = _name;\n    funds = 0;\n    initTime = block.timestamp;\n    deadline = block.timestamp;\n  }\n\n  function addTask(string memory description_, uint number, uint amount) external returns (bool){\n    require(locked==false, 'The checklist has been locked, both parties must unlock to allow changes.');\n    require(bytes(description_).length!=0 && number>0 && amount>0, 'You must add a description, number, and valid amount');\n\n    Task memory task_;\n    task_.description = description_;\n    task_.amount = amount;\n    task_.init = true;\n    taskLookup[number] = task_;  // Add task to task mapping (where you can access task structs)\n    taskNumbers.push(number);  // Add task number to list of task numbers\n    require(taskLookup[number].init == task_.init, 'Mapping update failed.');\n    return true;\n  }\n  function changeTask(uint number, string calldata _description, uint _amount) external returns (bool, uint) {\n    require(locked==false, 'The checklist has been locked, both parties must unlock to allow changes.');\n    require(bytes(_description).length!=0 && number>0 && _amount>0, 'You must add a description, number, and valid amount');\n    taskLookup[number].description = _description;\n    taskLookup[number].amount = _amount;\n\n    return (true, computePrice());\n  }\n  function removeTask(uint number, uint[] calldata taskNumbers_) external returns (bool){\n    require(locked==false, 'The checklist has been locked, both parties must unlock to allow changes.');\n    delete taskLookup[number];  // Delete task number \"order\"\n    taskNumbers = taskNumbers_; // Client side reassign the array of task numbers\n    return true;\n  }\n  function getTask(uint number) public view returns(string memory, uint, bool, bool, bool) {\n//    Task memory _task = taskLookup[number];\n    return (taskLookup[number].description, taskLookup[number].amount,\n    taskLookup[number].contractorCheck, taskLookup[number].payerCheck, taskLookup[number].payedOut);\n  }\n  function computePrice() internal view returns(uint){\n    uint totalPayment = 0;\n    for (uint i = 0; i <= taskNumbers.length; i++) {\n      totalPayment += taskLookup[i].amount;\n    }\n    return totalPayment;\n  }\n  function lockChecklist() public returns (bool){  // Both the contractor and payer have to call this function\n    require(msg.sender==payer || msg.sender==contractor);\n    if (msg.sender==payer){\n      payerUnlock = !payerUnlock;\n    } else{\n       contractorUnlock = !contractorUnlock;\n    }\n    if (payerUnlock==false && contractorUnlock==false){\n      locked = true;\n      bool success = escrowPayer();\n      require(success);\n    }\n    return true;\n  }\n  function escrowPayer() public returns (bool){  // Could escrow per checklist point\n    require(locked, 'Both parties must agree to the checklist before escrow-ing funds.');\n    uint totalPayment = computePrice();\n    (bool success, ) = address(this).call{value: totalPayment}(\"\");\n    require(success, 'Escrow failed');\n    funds = totalPayment;\n    return true;\n  }\n\n  function unlockChecklist() public returns (bool){\n    require(msg.sender==payer || msg.sender==contractor);\n    if (msg.sender==payer){\n      payerUnlock = true;\n    } else{\n       contractorUnlock = true;\n    }\n    if (payerUnlock==true && contractorUnlock==true){\n      locked = false;\n    }\n    return true;\n  }\n\n  function contractorCheckOff(uint number) public {\n    require(msg.sender==contractor, 'Only the contractor can check off their side');\n    require(taskLookup[number].init, 'No task exists for that number');\n    taskLookup[number].contractorCheck = true;\n  }\n  function payerCheckOff(uint number) public {\n    require(msg.sender==payer, 'Only the payer can check off their side');\n    require(taskLookup[number].init, 'No task exists for that number');\n    require(taskLookup[number].contractorCheck, 'Can only pay out for tasks contractor has asserted as completed.');\n\n    taskLookup[number].payerCheck = true;\n    if (taskLookup[number].contractorCheck){  // Both parties agreed to the task being finished, pay out\n      require(taskLookup[number].payedOut==false, 'Task has already been paid out.');\n      uint payout = taskLookup[number].amount;\n      require(payout<=funds, \"Contract's escrowed funds are less than the payout price\");\n      (bool success, ) = contractor.call{value: payout}(\"\");  // Pay contractor, TODO does this pay from checklist fund?\n      require(success, 'Pay out transaction failed.');\n      taskLookup[number].payedOut = true;\n      funds -= payout;\n    }\n  }\n\n  function getName() public view returns(string memory){\n    return name;\n  }\n  function getFunds() public view returns(uint){\n    return funds;\n  }\n  function getCost() public view returns(uint){\n    return cost;\n  }\n  function getPayer() public view returns(address payable){\n    return payer;\n  }\n  function getContractor() public view returns(address payable){\n    return contractor;\n  }\n  function getLockStatus() public view returns(bool){\n    return locked;\n  }\n  function getContractorUnlock() public view returns(bool){\n    return contractorUnlock;\n  }\n  function getPayerUnlock() public view returns(bool){\n    return payerUnlock;\n  }\n  function getTaskNumbers() public view returns(uint[] memory){\n    return taskNumbers;\n  }\n}\n",
  "sourcePath": "/Users/alexa/PycharmProjects/Contractd/src/contracts/Checklist.sol",
  "compiler": {
    "name": "solc",
    "version": "0.7.6+commit.7338295f.Emscripten.clang"
  },
  "schemaVersion": "3.2.3",
  "updatedAt": "2021-05-24T12:31:17.841Z",
  "devdoc": {
    "kind": "dev",
    "methods": {},
    "version": 1
  },
  "userdoc": {
    "kind": "user",
    "methods": {},
    "version": 1
  }
}